{
  "contractName": "User",
  "abi": [
    {
      "inputs": [
        {
          "internalType": "string",
          "name": "_name",
          "type": "string"
        },
        {
          "internalType": "string",
          "name": "_email",
          "type": "string"
        },
        {
          "internalType": "string",
          "name": "_dob",
          "type": "string"
        },
        {
          "internalType": "string",
          "name": "_country",
          "type": "string"
        },
        {
          "internalType": "string",
          "name": "_mobile",
          "type": "string"
        },
        {
          "internalType": "string",
          "name": "_gender",
          "type": "string"
        }
      ],
      "stateMutability": "nonpayable",
      "type": "constructor"
    },
    {
      "inputs": [
        {
          "internalType": "string",
          "name": "_name",
          "type": "string"
        }
      ],
      "name": "setName",
      "outputs": [],
      "stateMutability": "nonpayable",
      "type": "function"
    },
    {
      "inputs": [
        {
          "internalType": "string",
          "name": "_email",
          "type": "string"
        }
      ],
      "name": "setEmail",
      "outputs": [],
      "stateMutability": "nonpayable",
      "type": "function"
    },
    {
      "inputs": [
        {
          "internalType": "string",
          "name": "_dob",
          "type": "string"
        }
      ],
      "name": "setDOB",
      "outputs": [],
      "stateMutability": "nonpayable",
      "type": "function"
    },
    {
      "inputs": [
        {
          "internalType": "string",
          "name": "_country",
          "type": "string"
        }
      ],
      "name": "setCountry",
      "outputs": [],
      "stateMutability": "nonpayable",
      "type": "function"
    },
    {
      "inputs": [
        {
          "internalType": "string",
          "name": "_mobile",
          "type": "string"
        }
      ],
      "name": "setMobile",
      "outputs": [],
      "stateMutability": "nonpayable",
      "type": "function"
    },
    {
      "inputs": [
        {
          "internalType": "string",
          "name": "_gender",
          "type": "string"
        }
      ],
      "name": "setGender",
      "outputs": [],
      "stateMutability": "nonpayable",
      "type": "function"
    },
    {
      "inputs": [
        {
          "internalType": "address",
          "name": "_verifierContract",
          "type": "address"
        },
        {
          "internalType": "address",
          "name": "_user",
          "type": "address"
        },
        {
          "internalType": "string",
          "name": "_token",
          "type": "string"
        }
      ],
      "name": "verify",
      "outputs": [],
      "stateMutability": "nonpayable",
      "type": "function"
    },
    {
      "inputs": [
        {
          "internalType": "address",
          "name": "_verifierAccount",
          "type": "address"
        }
      ],
      "name": "revokeConsent",
      "outputs": [],
      "stateMutability": "nonpayable",
      "type": "function"
    },
    {
      "inputs": [
        {
          "internalType": "string",
          "name": "_verification",
          "type": "string"
        }
      ],
      "name": "addVerification",
      "outputs": [],
      "stateMutability": "nonpayable",
      "type": "function"
    },
    {
      "inputs": [],
      "name": "getVerifications",
      "outputs": [
        {
          "internalType": "string[]",
          "name": "",
          "type": "string[]"
        }
      ],
      "stateMutability": "view",
      "type": "function"
    },
    {
      "inputs": [],
      "name": "getName",
      "outputs": [
        {
          "internalType": "string",
          "name": "_name",
          "type": "string"
        }
      ],
      "stateMutability": "view",
      "type": "function"
    },
    {
      "inputs": [],
      "name": "getEmail",
      "outputs": [
        {
          "internalType": "string",
          "name": "_email",
          "type": "string"
        }
      ],
      "stateMutability": "view",
      "type": "function"
    },
    {
      "inputs": [],
      "name": "getDOB",
      "outputs": [
        {
          "internalType": "string",
          "name": "_dob",
          "type": "string"
        }
      ],
      "stateMutability": "view",
      "type": "function"
    },
    {
      "inputs": [],
      "name": "getCountry",
      "outputs": [
        {
          "internalType": "string",
          "name": "_country",
          "type": "string"
        }
      ],
      "stateMutability": "view",
      "type": "function"
    },
    {
      "inputs": [],
      "name": "getMobile",
      "outputs": [
        {
          "internalType": "string",
          "name": "_mobile",
          "type": "string"
        }
      ],
      "stateMutability": "view",
      "type": "function"
    },
    {
      "inputs": [],
      "name": "getGender",
      "outputs": [
        {
          "internalType": "string",
          "name": "_gender",
          "type": "string"
        }
      ],
      "stateMutability": "view",
      "type": "function"
    }
  ],
  "bytecode": "0x60806040523480156200001157600080fd5b506040516200247a3803806200247a833981810160405281019062000037919062000283565b33600660006101000a81548173ffffffffffffffffffffffffffffffffffffffff021916908373ffffffffffffffffffffffffffffffffffffffff160217905550856000908162000089919062000624565b5084600190816200009b919062000624565b508360029081620000ad919062000624565b508260039081620000bf919062000624565b508160049081620000d1919062000624565b508060059081620000e3919062000624565b505050505050506200070b565b6000604051905090565b600080fd5b600080fd5b600080fd5b600080fd5b6000601f19601f8301169050919050565b7f4e487b7100000000000000000000000000000000000000000000000000000000600052604160045260246000fd5b62000159826200010e565b810181811067ffffffffffffffff821117156200017b576200017a6200011f565b5b80604052505050565b600062000190620000f0565b90506200019e82826200014e565b919050565b600067ffffffffffffffff821115620001c157620001c06200011f565b5b620001cc826200010e565b9050602081019050919050565b60005b83811015620001f9578082015181840152602081019050620001dc565b60008484015250505050565b60006200021c6200021684620001a3565b62000184565b9050828152602081018484840111156200023b576200023a62000109565b5b62000248848285620001d9565b509392505050565b600082601f83011262000268576200026762000104565b5b81516200027a84826020860162000205565b91505092915050565b60008060008060008060c08789031215620002a357620002a2620000fa565b5b600087015167ffffffffffffffff811115620002c457620002c3620000ff565b5b620002d289828a0162000250565b965050602087015167ffffffffffffffff811115620002f657620002f5620000ff565b5b6200030489828a0162000250565b955050604087015167ffffffffffffffff811115620003285762000327620000ff565b5b6200033689828a0162000250565b945050606087015167ffffffffffffffff8111156200035a5762000359620000ff565b5b6200036889828a0162000250565b935050608087015167ffffffffffffffff8111156200038c576200038b620000ff565b5b6200039a89828a0162000250565b92505060a087015167ffffffffffffffff811115620003be57620003bd620000ff565b5b620003cc89828a0162000250565b9150509295509295509295565b600081519050919050565b7f4e487b7100000000000000000000000000000000000000000000000000000000600052602260045260246000fd5b600060028204905060018216806200042c57607f821691505b602082108103620004425762000441620003e4565b5b50919050565b60008190508160005260206000209050919050565b60006020601f8301049050919050565b600082821b905092915050565b600060088302620004ac7fffffffffffffffffffffffffffffffffffffffffffffffffffffffffffffffff826200046d565b620004b886836200046d565b95508019841693508086168417925050509392505050565b6000819050919050565b6000819050919050565b600062000505620004ff620004f984620004d0565b620004da565b620004d0565b9050919050565b6000819050919050565b6200052183620004e4565b6200053962000530826200050c565b8484546200047a565b825550505050565b600090565b6200055062000541565b6200055d81848462000516565b505050565b5b8181101562000585576200057960008262000546565b60018101905062000563565b5050565b601f821115620005d4576200059e8162000448565b620005a9846200045d565b81016020851015620005b9578190505b620005d1620005c8856200045d565b83018262000562565b50505b505050565b600082821c905092915050565b6000620005f960001984600802620005d9565b1980831691505092915050565b6000620006148383620005e6565b9150826002028217905092915050565b6200062f82620003d9565b67ffffffffffffffff8111156200064b576200064a6200011f565b5b62000657825462000413565b6200066482828562000589565b600060209050601f8311600181146200069c576000841562000687578287015190505b62000693858262000606565b86555062000703565b601f198416620006ac8662000448565b60005b82811015620006d657848901518255600182019150602085019450602081019050620006af565b86831015620006f65784890151620006f2601f891682620005e6565b8355505b6001600288020188555050505b505050505050565b611d5f806200071b6000396000f3fe608060405234801561001057600080fd5b50600436106101005760003560e01c80639e0bc62f11610097578063d1ad6efe11610066578063d1ad6efe14610263578063d99edca31461027f578063dd9e54b31461029b578063f212e265146102b757610100565b80639e0bc62f146101ef5780639e0c3ead1461020d578063c47f00271461022b578063d1a486271461024757610100565b80636fd41a12116100d35780636fd41a12146101795780637211d523146101955780637c38a8c3146101b35780637e79e8ba146101d157610100565b806317d7de7c146101055780631a765bc514610123578063282b065a1461013f578063285fe7281461015b575b600080fd5b61010d6102d3565b60405161011a919061150c565b60405180910390f35b61013d600480360381019061013891906116d5565b610450565b005b61015960048036038101906101549190611744565b61061d565b005b6101636106c0565b6040516101709190611899565b60405180910390f35b610193600480360381019061018e9190611744565b610829565b005b61019d6108f1565b6040516101aa919061150c565b60405180910390f35b6101bb610a6e565b6040516101c8919061150c565b60405180910390f35b6101d9610beb565b6040516101e6919061150c565b60405180910390f35b6101f7610d68565b604051610204919061150c565b60405180910390f35b610215610ee5565b604051610222919061150c565b60405180910390f35b61024560048036038101906102409190611744565b611062565b005b610261600480360381019061025c91906118bb565b611105565b005b61027d60048036038101906102789190611744565b6111f0565b005b61029960048036038101906102949190611744565b611293565b005b6102b560048036038101906102b09190611744565b611336565b005b6102d160048036038101906102cc9190611744565b6113d9565b005b606060011515600760003373ffffffffffffffffffffffffffffffffffffffff1673ffffffffffffffffffffffffffffffffffffffff16815260200190815260200160002060009054906101000a900460ff16151514806103815750600660009054906101000a900473ffffffffffffffffffffffffffffffffffffffff1673ffffffffffffffffffffffffffffffffffffffff163373ffffffffffffffffffffffffffffffffffffffff16145b6103c0576040517f08c379a00000000000000000000000000000000000000000000000000000000081526004016103b790611934565b60405180910390fd5b600080546103cd90611983565b80601f01602080910402602001604051908101604052809291908181526020018280546103f990611983565b80156104465780601f1061041b57610100808354040283529160200191610446565b820191906000526020600020905b81548152906001019060200180831161042957829003601f168201915b5050505050905090565b600660009054906101000a900473ffffffffffffffffffffffffffffffffffffffff1673ffffffffffffffffffffffffffffffffffffffff163373ffffffffffffffffffffffffffffffffffffffff16146104e0576040517f08c379a00000000000000000000000000000000000000000000000000000000081526004016104d790611a00565b60405180910390fd5b8273ffffffffffffffffffffffffffffffffffffffff1663dca34dfc82846040518363ffffffff1660e01b815260040161051b929190611a2f565b6020604051808303816000875af115801561053a573d6000803e3d6000fd5b505050506040513d601f19601f8201168201806040525081019061055e9190611a74565b600860006101000a81548173ffffffffffffffffffffffffffffffffffffffff021916908373ffffffffffffffffffffffffffffffffffffffff160217905550600160076000600860009054906101000a900473ffffffffffffffffffffffffffffffffffffffff1673ffffffffffffffffffffffffffffffffffffffff1673ffffffffffffffffffffffffffffffffffffffff16815260200190815260200160002060006101000a81548160ff021916908315150217905550505050565b600660009054906101000a900473ffffffffffffffffffffffffffffffffffffffff1673ffffffffffffffffffffffffffffffffffffffff163373ffffffffffffffffffffffffffffffffffffffff16146106ad576040517f08c379a00000000000000000000000000000000000000000000000000000000081526004016106a490611a00565b60405180910390fd5b80600190816106bc9190611c57565b5050565b6060600660009054906101000a900473ffffffffffffffffffffffffffffffffffffffff1673ffffffffffffffffffffffffffffffffffffffff163373ffffffffffffffffffffffffffffffffffffffff1614610752576040517f08c379a000000000000000000000000000000000000000000000000000000000815260040161074990611a00565b60405180910390fd5b6009805480602002602001604051908101604052809291908181526020016000905b8282101561082057838290600052602060002001805461079390611983565b80601f01602080910402602001604051908101604052809291908181526020018280546107bf90611983565b801561080c5780601f106107e15761010080835404028352916020019161080c565b820191906000526020600020905b8154815290600101906020018083116107ef57829003601f168201915b505050505081526020019060010190610774565b50505050905090565b600660009054906101000a900473ffffffffffffffffffffffffffffffffffffffff1673ffffffffffffffffffffffffffffffffffffffff163373ffffffffffffffffffffffffffffffffffffffff16146108b9576040517f08c379a00000000000000000000000000000000000000000000000000000000081526004016108b090611a00565b60405180910390fd5b6009819080600181540180825580915050600190039060005260206000200160009091909190915090816108ed9190611c57565b5050565b606060011515600760003373ffffffffffffffffffffffffffffffffffffffff1673ffffffffffffffffffffffffffffffffffffffff16815260200190815260200160002060009054906101000a900460ff161515148061099f5750600660009054906101000a900473ffffffffffffffffffffffffffffffffffffffff1673ffffffffffffffffffffffffffffffffffffffff163373ffffffffffffffffffffffffffffffffffffffff16145b6109de576040517f08c379a00000000000000000000000000000000000000000000000000000000081526004016109d590611934565b60405180910390fd5b600280546109eb90611983565b80601f0160208091040260200160405190810160405280929190818152602001828054610a1790611983565b8015610a645780601f10610a3957610100808354040283529160200191610a64565b820191906000526020600020905b815481529060010190602001808311610a4757829003601f168201915b5050505050905090565b606060011515600760003373ffffffffffffffffffffffffffffffffffffffff1673ffffffffffffffffffffffffffffffffffffffff16815260200190815260200160002060009054906101000a900460ff1615151480610b1c5750600660009054906101000a900473ffffffffffffffffffffffffffffffffffffffff1673ffffffffffffffffffffffffffffffffffffffff163373ffffffffffffffffffffffffffffffffffffffff16145b610b5b576040517f08c379a0000000000000000000000000000000000000000000000000000000008152600401610b5290611934565b60405180910390fd5b60058054610b6890611983565b80601f0160208091040260200160405190810160405280929190818152602001828054610b9490611983565b8015610be15780601f10610bb657610100808354040283529160200191610be1565b820191906000526020600020905b815481529060010190602001808311610bc457829003601f168201915b5050505050905090565b606060011515600760003373ffffffffffffffffffffffffffffffffffffffff1673ffffffffffffffffffffffffffffffffffffffff16815260200190815260200160002060009054906101000a900460ff1615151480610c995750600660009054906101000a900473ffffffffffffffffffffffffffffffffffffffff1673ffffffffffffffffffffffffffffffffffffffff163373ffffffffffffffffffffffffffffffffffffffff16145b610cd8576040517f08c379a0000000000000000000000000000000000000000000000000000000008152600401610ccf90611934565b60405180910390fd5b60018054610ce590611983565b80601f0160208091040260200160405190810160405280929190818152602001828054610d1190611983565b8015610d5e5780601f10610d3357610100808354040283529160200191610d5e565b820191906000526020600020905b815481529060010190602001808311610d4157829003601f168201915b5050505050905090565b606060011515600760003373ffffffffffffffffffffffffffffffffffffffff1673ffffffffffffffffffffffffffffffffffffffff16815260200190815260200160002060009054906101000a900460ff1615151480610e165750600660009054906101000a900473ffffffffffffffffffffffffffffffffffffffff1673ffffffffffffffffffffffffffffffffffffffff163373ffffffffffffffffffffffffffffffffffffffff16145b610e55576040517f08c379a0000000000000000000000000000000000000000000000000000000008152600401610e4c90611934565b60405180910390fd5b60048054610e6290611983565b80601f0160208091040260200160405190810160405280929190818152602001828054610e8e90611983565b8015610edb5780601f10610eb057610100808354040283529160200191610edb565b820191906000526020600020905b815481529060010190602001808311610ebe57829003601f168201915b5050505050905090565b606060011515600760003373ffffffffffffffffffffffffffffffffffffffff1673ffffffffffffffffffffffffffffffffffffffff16815260200190815260200160002060009054906101000a900460ff1615151480610f935750600660009054906101000a900473ffffffffffffffffffffffffffffffffffffffff1673ffffffffffffffffffffffffffffffffffffffff163373ffffffffffffffffffffffffffffffffffffffff16145b610fd2576040517f08c379a0000000000000000000000000000000000000000000000000000000008152600401610fc990611934565b60405180910390fd5b60038054610fdf90611983565b80601f016020809104026020016040519081016040528092919081815260200182805461100b90611983565b80156110585780601f1061102d57610100808354040283529160200191611058565b820191906000526020600020905b81548152906001019060200180831161103b57829003601f168201915b5050505050905090565b600660009054906101000a900473ffffffffffffffffffffffffffffffffffffffff1673ffffffffffffffffffffffffffffffffffffffff163373ffffffffffffffffffffffffffffffffffffffff16146110f2576040517f08c379a00000000000000000000000000000000000000000000000000000000081526004016110e990611a00565b60405180910390fd5b80600090816111019190611c57565b5050565b600660009054906101000a900473ffffffffffffffffffffffffffffffffffffffff1673ffffffffffffffffffffffffffffffffffffffff163373ffffffffffffffffffffffffffffffffffffffff1614611195576040517f08c379a000000000000000000000000000000000000000000000000000000000815260040161118c90611a00565b60405180910390fd5b6000600760008373ffffffffffffffffffffffffffffffffffffffff1673ffffffffffffffffffffffffffffffffffffffff16815260200190815260200160002060006101000a81548160ff02191690831515021790555050565b600660009054906101000a900473ffffffffffffffffffffffffffffffffffffffff1673ffffffffffffffffffffffffffffffffffffffff163373ffffffffffffffffffffffffffffffffffffffff1614611280576040517f08c379a000000000000000000000000000000000000000000000000000000000815260040161127790611a00565b60405180910390fd5b806003908161128f9190611c57565b5050565b600660009054906101000a900473ffffffffffffffffffffffffffffffffffffffff1673ffffffffffffffffffffffffffffffffffffffff163373ffffffffffffffffffffffffffffffffffffffff1614611323576040517f08c379a000000000000000000000000000000000000000000000000000000000815260040161131a90611a00565b60405180910390fd5b80600490816113329190611c57565b5050565b600660009054906101000a900473ffffffffffffffffffffffffffffffffffffffff1673ffffffffffffffffffffffffffffffffffffffff163373ffffffffffffffffffffffffffffffffffffffff16146113c6576040517f08c379a00000000000000000000000000000000000000000000000000000000081526004016113bd90611a00565b60405180910390fd5b80600290816113d59190611c57565b5050565b600660009054906101000a900473ffffffffffffffffffffffffffffffffffffffff1673ffffffffffffffffffffffffffffffffffffffff163373ffffffffffffffffffffffffffffffffffffffff1614611469576040517f08c379a000000000000000000000000000000000000000000000000000000000815260040161146090611a00565b60405180910390fd5b80600590816114789190611c57565b5050565b600081519050919050565b600082825260208201905092915050565b60005b838110156114b657808201518184015260208101905061149b565b60008484015250505050565b6000601f19601f8301169050919050565b60006114de8261147c565b6114e88185611487565b93506114f8818560208601611498565b611501816114c2565b840191505092915050565b6000602082019050818103600083015261152681846114d3565b905092915050565b6000604051905090565b600080fd5b600080fd5b600073ffffffffffffffffffffffffffffffffffffffff82169050919050565b600061156d82611542565b9050919050565b61157d81611562565b811461158857600080fd5b50565b60008135905061159a81611574565b92915050565b600080fd5b600080fd5b7f4e487b7100000000000000000000000000000000000000000000000000000000600052604160045260246000fd5b6115e2826114c2565b810181811067ffffffffffffffff82111715611601576116006115aa565b5b80604052505050565b600061161461152e565b905061162082826115d9565b919050565b600067ffffffffffffffff8211156116405761163f6115aa565b5b611649826114c2565b9050602081019050919050565b82818337600083830152505050565b600061167861167384611625565b61160a565b905082815260208101848484011115611694576116936115a5565b5b61169f848285611656565b509392505050565b600082601f8301126116bc576116bb6115a0565b5b81356116cc848260208601611665565b91505092915050565b6000806000606084860312156116ee576116ed611538565b5b60006116fc8682870161158b565b935050602061170d8682870161158b565b925050604084013567ffffffffffffffff81111561172e5761172d61153d565b5b61173a868287016116a7565b9150509250925092565b60006020828403121561175a57611759611538565b5b600082013567ffffffffffffffff8111156117785761177761153d565b5b611784848285016116a7565b91505092915050565b600081519050919050565b600082825260208201905092915050565b6000819050602082019050919050565b600082825260208201905092915050565b60006117d58261147c565b6117df81856117b9565b93506117ef818560208601611498565b6117f8816114c2565b840191505092915050565b600061180f83836117ca565b905092915050565b6000602082019050919050565b600061182f8261178d565b6118398185611798565b93508360208202850161184b856117a9565b8060005b8581101561188757848403895281516118688582611803565b945061187383611817565b925060208a0199505060018101905061184f565b50829750879550505050505092915050565b600060208201905081810360008301526118b38184611824565b905092915050565b6000602082840312156118d1576118d0611538565b5b60006118df8482850161158b565b91505092915050565b7f43616c6c6572206973206e6f7420746865207665726966696572000000000000600082015250565b600061191e601a83611487565b9150611929826118e8565b602082019050919050565b6000602082019050818103600083015261194d81611911565b9050919050565b7f4e487b7100000000000000000000000000000000000000000000000000000000600052602260045260246000fd5b6000600282049050600182168061199b57607f821691505b6020821081036119ae576119ad611954565b5b50919050565b7f43616c6c6572206973206e6f74206f776e657200000000000000000000000000600082015250565b60006119ea601383611487565b91506119f5826119b4565b602082019050919050565b60006020820190508181036000830152611a19816119dd565b9050919050565b611a2981611562565b82525050565b60006040820190508181036000830152611a4981856114d3565b9050611a586020830184611a20565b9392505050565b600081519050611a6e81611574565b92915050565b600060208284031215611a8a57611a89611538565b5b6000611a9884828501611a5f565b91505092915050565b60008190508160005260206000209050919050565b60006020601f8301049050919050565b600082821b905092915050565b600060088302611b037fffffffffffffffffffffffffffffffffffffffffffffffffffffffffffffffff82611ac6565b611b0d8683611ac6565b95508019841693508086168417925050509392505050565b6000819050919050565b6000819050919050565b6000611b54611b4f611b4a84611b25565b611b2f565b611b25565b9050919050565b6000819050919050565b611b6e83611b39565b611b82611b7a82611b5b565b848454611ad3565b825550505050565b600090565b611b97611b8a565b611ba2818484611b65565b505050565b5b81811015611bc657611bbb600082611b8f565b600181019050611ba8565b5050565b601f821115611c0b57611bdc81611aa1565b611be584611ab6565b81016020851015611bf4578190505b611c08611c0085611ab6565b830182611ba7565b50505b505050565b600082821c905092915050565b6000611c2e60001984600802611c10565b1980831691505092915050565b6000611c478383611c1d565b9150826002028217905092915050565b611c608261147c565b67ffffffffffffffff811115611c7957611c786115aa565b5b611c838254611983565b611c8e828285611bca565b600060209050601f831160018114611cc15760008415611caf578287015190505b611cb98582611c3b565b865550611d21565b601f198416611ccf86611aa1565b60005b82811015611cf757848901518255600182019150602085019450602081019050611cd2565b86831015611d145784890151611d10601f891682611c1d565b8355505b6001600288020188555050505b50505050505056fea2646970667358221220c40c69bf742c573b8241ddb6af76d809ba4c3ce9da38390e6a5a04186c41896964736f6c63430008110033",
  "immutableReferences": {},
  "source": "// SPDX-License-Identifier: GPL-3.0\r\n\r\npragma solidity >=0.7.0 <0.9.0;\r\n\r\ninterface IVerifier {\r\n    function verifyToken(string memory token, address userContract)\r\n        external\r\n        returns (address);\r\n}\r\n\r\ncontract User {\r\n    // personal details to be shared when verifying the person\r\n    string name;\r\n    string email;\r\n    string dob;\r\n    string country;\r\n    string mobile;\r\n    string gender;\r\n\r\n    // user wallet address - to restrict the updates of personal details\r\n    address private owner;\r\n\r\n    // wallet address of previous verifiers\r\n    // - we give permission for this addresses to retrieve our personal data\r\n    mapping(address => bool) verifiers;\r\n    address lastVerifier;\r\n\r\n    // address[] verifiers;\r\n    string[] verifications;\r\n\r\n    constructor(\r\n        string memory _name,\r\n        string memory _email,\r\n        string memory _dob,\r\n        string memory _country,\r\n        string memory _mobile,\r\n        string memory _gender\r\n    ) {\r\n        owner = msg.sender;\r\n        name = _name;\r\n        email = _email;\r\n        dob = _dob;\r\n        country = _country;\r\n        mobile = _mobile;\r\n        gender = _gender;\r\n    }\r\n\r\n    // modifier to restrict the change of personal data only for the owner\r\n    modifier isOwner() {\r\n        require(msg.sender == owner, \"Caller is not owner\");\r\n        _;\r\n    }\r\n\r\n    // modifier for giving permission to retreive our personal details only to the verifier\r\n    modifier isVerified() {\r\n        require(\r\n            verifiers[msg.sender] == true || msg.sender == owner,\r\n            \"Caller is not the verifier\"\r\n        );\r\n        _;\r\n    }\r\n\r\n    // setters for default personal details - restricted only to the owner\r\n    function setName(string memory _name) public isOwner {\r\n        name = _name;\r\n    }\r\n\r\n    function setEmail(string memory _email) public isOwner {\r\n        email = _email;\r\n    }\r\n\r\n    function setDOB(string memory _dob) public isOwner {\r\n        dob = _dob;\r\n    }\r\n\r\n    function setCountry(string memory _country) public isOwner {\r\n        country = _country;\r\n    }\r\n\r\n    function setMobile(string memory _mobile) public isOwner {\r\n        mobile = _mobile;\r\n    }\r\n\r\n    function setGender(string memory _gender) public isOwner {\r\n        gender = _gender;\r\n    }\r\n\r\n    function verify(\r\n        address _verifierContract,\r\n        address _user,\r\n        string memory _token\r\n    ) public isOwner {\r\n        lastVerifier = IVerifier(_verifierContract).verifyToken(_token, _user);\r\n        verifiers[lastVerifier] = true;\r\n    }\r\n\r\n    function revokeConsent(address _verifierAccount) public isOwner {\r\n        verifiers[_verifierAccount] = false;\r\n    }\r\n\r\n    function addVerification(string memory _verification) public isOwner {\r\n        verifications.push(_verification);\r\n    }\r\n\r\n    function getVerifications() public view isOwner returns (string[] memory) {\r\n        return verifications;\r\n    }\r\n\r\n    // getters for default personal detials - restricted only for last verifier and owner\r\n    function getName() public view isVerified returns (string memory _name) {\r\n        return name;\r\n    }\r\n\r\n    function getEmail() public view isVerified returns (string memory _email) {\r\n        return email;\r\n    }\r\n\r\n    function getDOB() public view isVerified returns (string memory _dob) {\r\n        return dob;\r\n    }\r\n\r\n    function getCountry()\r\n        public\r\n        view\r\n        isVerified\r\n        returns (string memory _country)\r\n    {\r\n        return country;\r\n    }\r\n\r\n    function getMobile()\r\n        public\r\n        view\r\n        isVerified\r\n        returns (string memory _mobile)\r\n    {\r\n        return mobile;\r\n    }\r\n\r\n    function getGender()\r\n        public\r\n        view\r\n        isVerified\r\n        returns (string memory _gender)\r\n    {\r\n        return gender;\r\n    }\r\n}\r\n",
  "sourcePath": "D:\\Projects\\sem5\\contracts\\contracts\\user_contract.sol",
  "compiler": {
    "name": "solc",
    "version": "0.8.17+commit.8df45f5f.Emscripten.clang"
  },
  "schemaVersion": "3.4.10",
  "updatedAt": "2022-11-08T08:54:31.298Z",
  "devdoc": {
    "kind": "dev",
    "methods": {},
    "version": 1
  },
  "userdoc": {
    "kind": "user",
    "methods": {},
    "version": 1
  }
}